:100000000C94F2000C941A010C941A010C941A012D
:100010000C941A010C941A010C941A010C941A01F4
:100020000C941A010C941A010C94F1090C94B60367
:100030000C941A010C941A010C941A010C941A01D4
:100040000C941A010C941A010C941A010C941A01C4
:100050000C941A010C941A010C941A010C94850644
:100060000C941A010C9419060C94F3050C941A01C3
:100070000C941A010C941A010C941A010C941A0194
:100080000C941A010C941A010C941A010C941A0184
:100090000C941A010C941A010C941A010C941A0174
:1000A0000C941A010C941A010C941A014E0B510B6A
:1000B000400B440B480B720B720B720B550B590B18
:1000C0005D0B630B670B720B6D0B000000002400CF
:1000D00027002A002D003000000000002500280025
:1000E0002B002E0031000404040404030405020262
:1000F00002020403020202020606060606060404C1
:100100000202020404040802011040804010204052
:1001100080408008020401804020100201108010FD
:10012000204040200000000200090F0000030401ED
:10013000000C0000000000000000000000000000B3
:1001400000000072756E2D6272696467650A000AAC
:10015000000A00070605040100080A0B0C0D090837
:100160000B0002020201000904000001020200006B
:1001700005240010010524010101042402060524C0
:100180000600010705810310004009040100020A6E
:10019000000000070502024000000705830240003E
:1001A000000403090441726475696E6F204C4C436E
:1001B0000041726475696E6F2059756E00120100FE
:1001C00002000000404123418000010102030112AE
:1001D000010002EF020140412341800001010203BE
:1001E00001000F0D11241FBECFEFDAE0DEBFCDBF3F
:1001F00011E0A0E0B1E0EAEBFFE102C005900D9252
:10020000A035B107D9F722E0A0E5B1E001C01D9209
:10021000AE36B207E1F710E0C2EFD0E004C021979C
:10022000FE010E945D0DC13FD107C9F70E94630A1C
:100230000C94DB0F0C94000040915E0150915F0123
:1002400020915C0130915D0142175307B4F4909105
:10025000E8009570E1F39091E80092FD19C0809359
:10026000F10080915E0190915F0101968F73992753
:10027000892B19F48EEF8093E80080915E019091B4
:100280005F01019690935F0180935E0181E0089584
:1002900080E00895CF92DF92EF92FF920F931F9329
:1002A000CF93DF931F92CDB7DEB7182F062FE42E22
:1002B000862F880F8E5F99830E941C0183E00E9425
:1002C0001C01F12EC12E9981D92E8C2D8F198017EA
:1002D00098F4F601E7FE02C0849101C080810E947B
:1002E0001C01182F80E00E941C018123FFEFCF1A10
:1002F000DF0A8111EACF01C081E00F90DF91CF9139
:100300001F910F91FF90EF90DF90CF900895DF92B3
:10031000EF92FF920F931F93CF93DF93D82E8A0112
:100320007B01E40EF51EEB01CE15DF0571F0D7FE63
:1003300003C0FE01849101C088810E941C012196A6
:100340008111F2CF8FEF9FEF01C0C801DF91CF91F4
:100350001F910F91FF90EF90DF900895615030F062
:100360002091F100FC0120830196F8CF289884E6C3
:10037000809363010895EF92FF920F931F93CF93A1
:10038000DF938C017B01C0E0D0E0F701EC0FFD1F93
:100390006491662361F0D801ED91FC910190F081A8
:1003A000E02DC8010995892B11F02196EECFCE01E1
:1003B000DF91CF911F910F91FF90EF900895CF9211
:1003C000DF92EF92FF920F931F93CF93DF936C0115
:1003D0007A018B01C0E0D0E0CE15DF0589F0D801AD
:1003E0006D918D01D601ED91FC910190F081E02D90
:1003F000C6010995892B11F47E0102C02196ECCF2C
:10040000C701DF91CF911F910F91FF90EF90DF9087
:10041000CF900895FC01918D828D981761F0828DA7
:10042000DF01A80FB11D5D968C91928D9F5F9F7328
:10043000928F90E008958FEF9FEF0895FC01918DCA
:10044000828D981731F0828DE80FF11D858D90E037
:1004500008958FEF9FEF0895FC01918D228D892FD4
:1004600090E0805C9F4F821B91098F7399270895BC
:1004700085E691E00E942C0221E0892B09F420E01E
:10048000822F0895FC01848DDF01A80FB11DA35AAE
:10049000BF4F2C91848D90E001968F739927848FA4
:1004A000A689B7892C93A089B1898C9180648C939B
:1004B000938D848D981306C00288F389E02D808186
:1004C0008F7D80830895EF92FF920F931F93CF93B8
:1004D000DF93EC0181E0888F9B8D8C8D981305C094
:1004E000E889F989808185FD24C0F62E0B8D10E006
:1004F0000F5F1F4F0F731127E02E8C8DE8120CC079
:100500000FB607FCFACFE889F989808185FFF5CF1E
:10051000CE010E944202F1CF8B8DFE01E80FF11D4A
:10052000E35AFF4FF0820B8FEA89FB89808180625A
:1005300007C0EE89FF896083E889F989808180643A
:10054000808381E090E0DF91CF911F910F91FF9028
:10055000EF900895CF93DF93EC01888D8823C9F045
:10056000EA89FB89808185FD05C0A889B9898C91BC
:1005700086FD0FC00FB607FCF5CF808185FFF2CF57
:10058000A889B9898C9185FFEDCFCE010E944202E6
:10059000E7CFDF91CF91089580E090E0892B29F09B
:1005A0000E94380281110C94000008953FB7F8941E
:1005B0008091550190915601A0915701B091580139
:1005C00026B5A89B05C02F3F19F00196A11DB11DAE
:1005D0003FBFBA2FA92F982F8827820F911DA11DE9
:1005E000B11DBC01CD0142E0660F771F881F991F26
:1005F0004A95D1F708950F931F93CF93DF931F92DE
:10060000CDB7DEB782E0898342E450E06FE571E068
:1006100080E80E9487010E94DD09DC0112960D919D
:100620001C9113970115110569F0D801ED91FC910A
:100630000280F381E02DBE016F5F7F4FC8010995F5
:1006400097FF07C089810F90DF91CF911F910F9184
:100650000895F80100851185E5CF0E945A0F0F9388
:100660001F93CF93DF93EC0188819981009729F044
:100670002A813B812617370788F48B016F5F7F4FF4
:100680000E94900E009761F0998388831B830A83F0
:100690002C813D81232B11F4FC01108281E001C0EB
:1006A00080E0DF91CF911F910F910895EF92FF921B
:1006B0000F931F93CF93DF936115710511F480E0C1
:1006C00023C0FB0101900020E9F73197E61BF70BEF
:1006D000DC0114960D911C9115973097A1F07B01C8
:1006E000EC010E0F1F1FB8010E942F03882339F35E
:1006F000288139818C819D81B701820F931F0E94CF
:10070000680F1D830C8381E0DF91CF911F910F91C2
:10071000FF90EF900895EF92FF920F931F93CF9366
:10072000DF93EC017B018A01BA010E942F0328812B
:10073000398181110DC02115310519F0C9010E94BF
:10074000F80D198218821D821C821B821A8206C033
:100750001D830C83B701C9010E94680FCE01DF9190
:10076000CF911F910F91FF90EF9008951F920F92DC
:100770000FB60F921124CF92DF92EF92FF920F9358
:100780001F932F933F934F935F936F937F938F9319
:100790009F93AF93BF93EF93FF93CF93DF93CDB727
:1007A000DEB76C97DEBFCDBF1092E9008091E80004
:1007B00083FFFAC168E0CE0145960E94AE0182EF48
:1007C0008093E8008D8987FF05C09091E80090FF35
:1007D000FCCF03C09EEF9093E800982F907609F02D
:1007E000C6C09E892F89188D91110CC0803829F4BC
:1007F000809161018093F10002C01092F10010928B
:10080000F10047C1422F50E0512B913051F481113A
:1008100040C14130510509F03CC1809161018D7F9B
:100820000BC0933061F4811134C14130510509F09E
:1008300030C1809161018260809361012AC195304D
:1008400041F48091E80080FFFCCF20682093E30012
:1008500020C1963009F05FC0EB8CFC8C1092E9004F
:1008600010925F0110925E01123091F510925D01BD
:1008700010925C010E94FB0299E0BE016F5F7F4F06
:10088000DB01E92F1D92EA95E9F799831A8391E03C
:100890009E8390EA98879AEF998720915E01309124
:1008A0005F01275F3F4F3C832B838D831092E900CC
:1008B00010925F0110925E01F0925D01E0925C0186
:1008C00049E050E080E00E9487010E94FB02E1C005
:1008D000F0925D01E0925C010E94DD09DC0112965C
:1008E000ED90FC901397E114F10409F4C0C0D70116
:1008F000ED91FC910480F581E02DBE016B5E7F4F90
:10090000C7010995009719F00CF0C3C0C6C0F701E4
:10091000E084F184E8CF973009F4BFC0983021F427
:1009200081E08093F100B5C0993009F0B2C08370C6
:1009300009F0B3C0EDE1F1E081E021E036E3908120
:10094000992361F08093E9002093EB0091919093BB
:10095000EC003093ED008F5F873089F78EE780934E
:10096000EA001092EA008F898093640192C08B8D17
:100970009C8D1092E90010925F0110925E0190939D
:100980005D0180935C01898D811156C08E899D899E
:10099000913A59F4813209F080C047E050E064E0B8
:1009A00071E080E00E94870174C0913209F075C047
:1009B000833289F4888D90E0982F88272F89822BA5
:1009C000A0E0B0E08093000190930101A0930201A8
:1009D000B09303015EC0803269F48091E80082FF29
:1009E000FCCF67E084E091E00E94AE018BEF809342
:1009F000E80006C0823209F04CC08F8980930B0159
:100A000080916001882319F0EEEFFAE002C0E0E087
:100A1000F8E08091040190910501A0910601B09148
:100A20000701803B9440A105B10509F088C0809181
:100A30000B0180FFA0C083C00E94DD09DC0112967B
:100A40000D911C9113970115110539F1D801ED9104
:100A5000FC910190F081E02DBE016B5E7F4FC801DB
:100A60000995811116C0F80100851185ECCF113070
:100A7000C1F0133091F48F89882309F455C0823076
:100A8000E9F440E86BE081EB91E00E944A018823A1
:100A900021F08EEF8093E80087C081E28093EB0025
:100AA00083C08B8D9C8D089711F410935B0180910E
:100AB0005B01811136C06DEB71E038C0813029F4E3
:100AC00040E86BE085EA91E0E0CF833031F70E94A7
:100AD000DD09DC011296ED90FC9013978E010F5FFB
:100AE0001F4F6801E114F10479F0D701ED91FC91F9
:100AF0000680F781E02DB801C7010995080F111D87
:100B0000F701E084F184EECFD8011C92F601019048
:100B10000020E9F73197BF016C197D0940E0C6015B
:100B2000B4CF6FEC71E002C061EA71E0611571054C
:100B300009F4B3CFFB01449150E080E833CF0FB606
:100B4000F894A8958091600088618093600010926D
:100B500060000FBEA895EE3F2AE0F20739F08091C1
:100B6000FE0A9091FF0A9183808393CF1092FF0A2F
:100B70001092FE0A8ECFEE3F8AE0F80731F08081B6
:100B800091819093FF0A8093FE0A87E797E791830C
:100B900080839BE088E10FB6F894A895809360006D
:100BA0000FBE9093600075CF6C960FB6F894DEBFC1
:100BB0000FBECDBFDF91CF91FF91EF91BF91AF916C
:100BC0009F918F917F916F915F914F913F912F9165
:100BD0001F910F91FF90EF90DF90CF900F900FBE7D
:100BE0000F901F9018951F920F920FB60F9211241D
:100BF0002F933F934F935F936F937F938F939F9325
:100C0000AF93BF93EF93FF9385E691E00E9442027A
:100C1000FF91EF91BF91AF919F918F917F916F91D4
:100C20005F914F913F912F910F900FBE0F901F90AA
:100C300018951F920F920FB60F9211242F938F9336
:100C40009F93EF93FF93E0917501F091760180817E
:100C5000E0917B01F0917C0182FD12C09081809136
:100C60007E018F5F8F7320917F01821751F0E09199
:100C70007E01F0E0EB59FE4F958F80937E0101C01D
:100C80008081FF91EF919F918F912F910F900FBED7
:100C90000F901F9018958F929F92AF92BF92CF9214
:100CA000DF92EF92FF926B017C010E94D6024B0112
:100CB0005C01C114D104E104F104F1F00E94D602F8
:100CC000DC01CB0188199909AA09BB09883E934028
:100CD000A105B10570F321E0C21AD108E108F108BD
:100CE00088EE880E83E0981EA11CB11CC114D104AB
:100CF000E104F10419F7DDCFFF90EF90DF90CF9082
:100D0000BF90AF909F908F9008951F920F920FB653
:100D10000F9211242F933F938F939F93AF93BF9381
:100D20008091510190915201A0915301B0915401D1
:100D30003091500123E0230F2D3720F40196A11D9F
:100D4000B11D05C026E8230F0296A11DB11D2093F9
:100D500050018093510190935201A0935301B0939D
:100D600054018091550190915601A0915701B09185
:100D700058010196A11DB11D809355019093560114
:100D8000A0935701B0935801BF91AF919F918F915C
:100D90003F912F910F900FBE0F901F901895CF93FA
:100DA000DF93EC018D819E81DC01ED91FC9104804B
:100DB000F581E02D09951816190654F48D819E8150
:100DC000DC01ED91FC910680F781E02D0995EACFD9
:100DD000DF91CF9108958F929F92AF92BF92CF9261
:100DE000DF92EF92FF92CF93DF93EC018FB7F894ED
:100DF0008090510190905201A0905301B090540105
:100E00008FBF6B01E12CF12C8D819E81DC01ED9176
:100E1000FC910680F781E02D099597FF16C02FB74A
:100E2000F8948091510190915201A0915301B09199
:100E300054012FBF88199909AA09BB098C159D0572
:100E4000AE05BF0508F38FEF9FEFDF91CF91FF90C5
:100E5000EF90DF90CF90BF90AF909F908F900895CC
:100E6000FC01238134812627022E2295207F202514
:100E7000032E322F22952F70022626953227232704
:100E8000220F220F220F2025348323830895FC0193
:100E900080916401811103C08FEF9FEF08959FB788
:100EA000F89482E08093E9002091F20030E012167D
:100EB000130614F421E030E02115310559F028988B
:100EC00084E6809363018091F10080838091F20039
:100ED000882319F09FBFC90108958BE68093E8002D
:100EE000F9CFCF93DF931F92CDB7DEB76983DC01D3
:100EF000ED91FC910280F381E02D41E050E0BE01D4
:100F00006F5F7F4F09950F90DF91CF91089583E038
:100F10008093E9008091F200882319F08AE380939E
:100F2000E8000895CF93DF931F92CDB7DEB7FC01A1
:100F30008485958597FD05C02FEF3FEF3587248782
:100F40000BC0CE0101960E944707019719F48981D1
:100F500090E002C08FEF9FEF0F90DF91CF91089547
:100F60000F931F93CF93DF931F92CDB7DEB78C0102
:100F7000FC018485958597FF0EC0CE0101960E94E5
:100F80004707019719F4298130E002C02FEF3FEFA6
:100F9000F80135872487F801848595850F90DF91C6
:100FA000CF911F910F910895FC018485958597FD40
:100FB0000BC09FB7F89482E08093E9008091F20023
:100FC0009FBF90E0019608959FB7F89482E08093C8
:100FD000E9008091F2009FBF90E008958F929F9268
:100FE000AF92BF92CF92DF92EF92FF920F931F9337
:100FF000CF93DF935C016B018A0180910B01882301
:1010000009F45EC080916401882309F459C080917D
:10101000620180FF05C08091E00082608093E00063
:10102000E8018AEFF82E93E0E92E2FE3822E3AE3CF
:10103000932E209709F43DC08FB7F894E092E90011
:101040009091E80095FF06C09091F200282D291B91
:10105000922F01C090E08FBF91110AC0FA94FF2037
:1010600079F161E070E080E090E00E944B06E1CF12
:10107000292F30E0C217D3070CF49C2F8FB7F894B8
:10108000E092E9002091E80025FF11C0292F30E00F
:10109000C21BD30BF601915020F041914093F10017
:1010A000FACFC20ED31E9091E80095FF13C08FBFF8
:1010B000C0CF5D9884E680930D021016110644F0AF
:1010C00081E090E0F5019383828380E090E005C0A9
:1010D000C80103C09092E800EACFDF91CF911F9141
:1010E0000F91FF90EF90DF90CF90BF90AF909F90C7
:1010F0008F9008952F923F924F925F926F927F92BE
:101100008F929F92AF92BF92CF92DF92EF92FF9217
:101110000F931F93CF93DF93CDB7DEB727970FB60B
:10112000F894DEBF0FBECDBF9F838E835B016A0143
:101130001901DC82DD82198288248A94982C2B0183
:10114000440E551EEE81FF818085F981F81708F065
:1011500019C1AE81BF8114969C928E9213971596F9
:101160008D919C911697DC01ED91FC910190F0819D
:10117000E02D6FEF09956FEF8E819F810E94300700
:10118000EE81FF8185819681DC01ED91FC910190DA
:10119000F081E02DAE81BF816C910995EE81FF81D8
:1011A0006081CF010E943007AE81BF8115968D917D
:1011B0009C911697DC01ED91FC910190F081E02D5E
:1011C0006C8109956D818E819F810E943007EE812F
:1011D000FF8185819681DC01ED91FC910190F08188
:1011E000E02D6C2D09956C2D8E819F810E9430071A
:1011F0003501AE81BF8115968D919C91169764142F
:10120000750491F07301DC01ED91FC910190F08186
:10121000E02DD3016D913D010995F70160818E812B
:101220009F810E943007E5CFDC01ED91FC91AE81FA
:10123000BF8114966C910190F081E02D0995EE81AB
:10124000FF8185819681DC01ED91FC910190F08117
:10125000E02DAE81BF8113966C91099564E670E034
:101260008E819F810E94EB068F3F910509F07CC023
:10127000EE81FF81948283826FEFCF010E9430075D
:1012800065E070E08E819F810E94EB06AE81BF8198
:101290006C91262F30E08217930709F065C0CD01CD
:1012A0000E9430076AE070E08E819F810E94EB0609
:1012B0003C0197FD59C0682F8E819F810E943007A5
:1012C0006AE070E08E819F810E94EB067C0197FDB1
:1012D0004BC0682F8E819F810E9430076B821A82DB
:1012E000EA81FB81EE0EFF1E612C712C65E070E03F
:1012F0008E819F816E147F04A1F06016710689F0C3
:101300000E94EB0697FD09C0F101E60DF71D8083F1
:10131000682F8E819F810E943007FFEF6F1A7F0A2E
:10132000E5CF0E94EB063C0197FD1EC065E070E032
:101330008E819F810E94EB0697FD16C0762C662455
:10134000860D971DAE81BF8113962D913C91149708
:101350002817390749F48C918F5F8C93C7010E15BC
:101360001F0590F4C80110C0B981BF5FB98364E65E
:1013700070E080E090E00E944B068E819F810E9489
:10138000CF06E0CE8FEF9FEF27960FB6F894DEBF23
:101390000FBECDBFDF91CF911F910F91FF90EF90C6
:1013A000DF90CF90BF90AF909F908F907F906F9085
:1013B0005F904F903F902F9008958091120281117D
:1013C0000DC082E080930E0284E080930F021092A1
:1013D00011021092100281E0809312028EE092E0DE
:1013E00008951F920F920FB60F9211248F939F931F
:1013F0008091E1009091E100937F9093E10083FF61
:101400000FC01092E90091E09093EB001092EC0075
:1014100092E39093ED001092640198E09093F000B5
:1014200082FF20C093E09093E9009091F20099230D
:1014300019F09AE39093E80090910D02992339F006
:1014400090910D02915090930D02992389F1909102
:101450006301992339F09091630191509093630156
:10146000992341F184FF10C08091E2008E7E81605B
:101470008093E2008091E1008F7E8093E100809173
:1014800062018E7E806111C080FF16C08091E200F3
:101490008E7E80618093E2008091E1008E7E809359
:1014A000E100809162018E7E81608093620104C0C0
:1014B0005D9ACDCF289AD6CF9F918F910F900FBE76
:1014C0000F901F901895CF93DF93CDB7DEB76F972E
:1014D0000FB6F894DEBF0FBECDBF789484B582609E
:1014E00084BD84B5816084BD85B5826085BD85B5C8
:1014F000816085BD80916E00816080936E00109246
:1015000081008091810082608093810080918100C0
:101510008160809381008091800081608093800051
:101520008091910082608093910080919100816010
:1015300080939100809190008160809390008091D1
:10154000C10084608093C1008091C100826080935B
:10155000C1008091C10081608093C1008091C3006F
:1015600081608093C3008091C00082608093C0003E
:101570008091C20081608093C20080917A00846073
:1015800080937A0080917A00826080937A008091C3
:101590007A00816080937A0080917A0080688093DD
:1015A0007A001092640110926101109262018091A0
:1015B000D70081608093D70080EA8093D80089B5F6
:1015C000806189BD89B5826089BD09B400FEFDCF07
:1015D00061E070E080E090E00E944B068091D800CE
:1015E0008F7C80618093D8008091E000807F809321
:1015F000E0008091E1008E7E8093E1008DE0809399
:10160000E200559A209AEEEFFFE7859194918B3F87
:101610009C4D19F481E08093600142E151E0FA01B0
:10162000649123EF30E0F9018491882399F090E0F0
:10163000880F991FFC01E653FF4FA591B491885282
:101640009F4FFC01059114918FB7F8949C91692BE1
:101650006C938FBFE1E3F1E08491FA014491F901C9
:101660002491222309F44DC08823E1F190E0FC018C
:101670003197EF30F105B0F5EA5AFF4F0C945D0D4C
:10168000809180008F7707C0809180008F7D03C09C
:1016900080918000877F8093800024C084B58F77FD
:1016A00002C084B58F7D84BD1DC0809190008F776E
:1016B00007C0809190008F7D03C080919000877F4C
:1016C000809390000FC08091C0008F7703C08091FD
:1016D000C0008F7D8093C00005C08091C200877FCD
:1016E0008093C200E22FF0E0EE0FFF1FE852FF4FA1
:1016F000A591B4918FB7F8949C91409549234C9350
:101700008FBFE0910B02F0910C02A089B18982E0B9
:101710008C93A485B5851C92A685B78587E08C93AC
:10172000108EA489B58986E08C93A289B3898C91A7
:1017300080618C93A289B3898C9188608C93A289F3
:10174000B3898C9180688C930288F389E02D808125
:101750008F7D8083809109028111C8C081E08093D0
:10176000090282E092E00E94CF0668EE73E080E01A
:1017700090E00E944B068091070290910802DC01E4
:10178000ED91FC910480F581E02D0995181619065C
:1017900044F365E0D62ECC24C39472E3B72EE2E185
:1017A000F1E0DE0153968D2D01900D928A95E1F7BF
:1017B000C0920A0200E010E020E030E045E050E096
:1017C000BE016D5E7F4F82E092E00E947A088091B8
:1017D000070290910802DC01ED91FC910190F081EB
:1017E000E02D63E009956AEF70E080E090E00E94F0
:1017F0004B0661E571E080910702909108020E941A
:10180000BB016AEF70E080E090E00E944B066FE45D
:1018100071E080910702909108020E94BB0164EF81
:1018200071E080E090E00E944B0663E471E08091FB
:101830000702909108020E94BB0164EF71E080E012
:1018400090E00E944B0682E092E00E94CF06E7E122
:10185000F1E0DE0111968D2D01900D928A95E1F750
:10186000B0920A0204E010E09E01275E3F4F45E07F
:1018700050E0BE016F5F7F4F82E092E00E947A08E5
:101880008F3FBFEF9B0739F468EE73E080E090E094
:101890000E944B0684CF298D2111FFCF0497E9F4D4
:1018A0002A8D30E02053310984E6829FA001839F76
:1018B000500D11242B8D30E0205331096AE0629FD6
:1018C000C001639F900D1124840F951F2C8D30E073
:1018D00020533109820F931F02C084E690E0909359
:1018E00004028093030282E380930A0253E5A52E4B
:1018F00051E0B52EFE0131966F01F5018491909172
:101900007B0083FBEE24E0F8F12C970145E0220FE9
:10191000331F4A95E1F79F7D292B20937B00877029
:10192000806480937C0080917A00806480937A0048
:1019300080917A0086FDFCCF80917800209179001B
:1019400090E0922B90935A01809359011C8A1B8A34
:101950001E8A1D8A188E1F8A4AE0B6010E946F0FE8
:10196000F60101900020E9F73197AF014C195D09AC
:10197000B601CE0143960E948B031A8E198E1C8EDF
:101980001B8E1E8E1D8E48E050E063E471E0CE0198
:1019900049960E948B030B891C89898C9A8C1A8228
:1019A00019821C821B821E821D8241E050E06CE481
:1019B00071E0C6010E948B03B401C6010E94560368
:1019C0006EE471E0C6010E945603B801C6010E9490
:1019D00056034D815E8169817A8101E010E09E01AC
:1019E000215E3F4F82E092E00E947A0889819A81CD
:1019F0000E94F80D898D9A8D0E94F80D8B899C8923
:101A00000E94F80D68EE73E080E090E00E944B06C3
:101A100010925A01109259010E94CC026ECFEAE155
:101A2000F2E01382128288EE93E0A0E0B0E08483BB
:101A30009583A683B78327E231E0318320832FEF9C
:101A40003FEF35872487E5E6F1E013821282848335
:101A50009583A683B78387E391E0918380838DECA0
:101A600090E0958784878CEC90E09787868788EC58
:101A700090E0918B808B89EC90E0938B828B8AEC49
:101A800090E0958B848B8EEC90E0978B868B118EFB
:101A9000128E138E148EA2E0B2E01C921696FC9366
:101AA000EE93159717961C92179718961C921897F5
:101AB0001A96FC93EE9319970895EE0FFF1F059069
:101AC000F491E02D0994CF93DF938230910510F4C7
:101AD00082E090E0E0916C02F0916D0220E030E055
:101AE000C0E0D0E0309711F140815181481759078B
:101AF000C0F04817590761F482819381209719F04B
:101B00009B838A832BC090936D0280936C0226C0C6
:101B10002115310519F04217530718F49A01BE0137
:101B2000DF01EF010280F381E02DDCCF21153105CB
:101B300009F1281B390B2430310590F412968D9150
:101B40009C9113976115710521F0FB0193838283AA
:101B500004C090936D0280936C02FD01329644C0E4
:101B6000FD01E20FF31F81939193225031092D93D0
:101B70003C933AC020916A0230916B02232B41F4CE
:101B800020910E0130910F0130936B0220936A0275
:101B900020910C0130910D012115310541F42DB733
:101BA0003EB74091100150911101241B350BE0917B
:101BB0006A02F0916B02E217F307A0F42E1B3F0BB1
:101BC0002817390778F0AC014E5F5F4F24173507AF
:101BD00048F04E0F5F1F50936B0240936A0281934F
:101BE000919302C0E0E0F0E0CF01DF91CF91089542
:101BF0000F931F93CF93DF93009709F48CC0FC01E0
:101C000032971382128200916C0210916D020115BD
:101C1000110581F420813181820F931F20916A0286
:101C200030916B022817390779F5F0936B02E09336
:101C30006A0271C0D80140E050E0AE17BF0750F40F
:101C400012962D913C911397AD012115310509F1A3
:101C5000D901F3CF9D01DA01338322836081718141
:101C6000860F971F8217930769F4EC012881398149
:101C7000260F371F2E5F3F4F318320838A819B8140
:101C800093838283452B29F4F0936D02E0936C02D9
:101C900042C01396FC93EE931297ED01499159912E
:101CA0009E01240F351FE217F30771F480819181A3
:101CB000840F951F029611969C938E938281938137
:101CC00013969C938E931297E0E0F0E0D801129661
:101CD0008D919C911397009719F0F8018C01F6CF24
:101CE0008D919C9198012E5F3F4F820F931F209101
:101CF0006A0230916B022817390769F4309729F48A
:101D000010926D0210926C0202C013821282109324
:101D10006B0200936A02DF91CF911F910F9108959A
:101D2000A0E0B0E0E6E9FEE00C94A80FEC0100971B
:101D300021F4CB010E94630DB8C0FC01E60FF71F30
:101D40009C0122503109E217F30708F4ACC0D90115
:101D50000D911C91119706171707B0F0053011056A
:101D600008F49FC0C80104978617970708F499C024
:101D700002501109061B170B019311936D937C936D
:101D8000CF010E94F80D8DC05B01A01AB10A4C0171
:101D9000800E911EA0916C02B0916D0240E050E067
:101DA000E12CF12C109709F44AC0A815B905D1F51A
:101DB0006D907C901197630182E0C80ED11CCA140B
:101DC000DB0480F1A3014A195B096A0182E0C80EB5
:101DD000D11C1296BC9012971396AC91B5E0CB161D
:101DE000D10440F0B282A38351834083D9016D9323
:101DF0007C930AC00E5F1F4FC301800F911FF90132
:101E000091838083EB2DFA2FE114F10431F0D70197
:101E10001396FC93EE93129744C0F0936D02E093F7
:101E20006C023FC08D919C9111974817590708F497
:101E3000AC017D0112960D90BC91A02DB3CF809185
:101E40006A0290916B0288159905E1F446175707CD
:101E5000C8F480910C0190910D01009741F48DB769
:101E60009EB74091100150911101841B950BE8170A
:101E7000F907C8F4F0936B02E0936A02F9017183E9
:101E800060830FC0CB010E94630D7C01009759F065
:101E9000A801BE010E945F0FCE010E94F80DC7018C
:101EA00004C0CE0102C080E090E0CDB7DEB7EEE026
:101EB0000C94C40F81E090E0F8940C94DB0FFB01CC
:101EC000DC0102C001900D9241505040D8F70895B6
:101ED000FB01DC0101900D920020E1F70895BB2782
:101EE0004A3031F4992322F4BDE2909581959F4FB9
:101EF0000C947B0FBB27FB015527AA27880F991F3E
:101F0000AA1FA41710F0A41B83955051B9F7A05D28
:101F1000AA3308F0A95DA193009779F7B111B193A5
:101F20001192CB010C94940FDC01FC01672F71918D
:101F30007723E1F7329704C07C916D9370836291AF
:101F4000AE17BF07C8F308952F923F924F925F924A
:101F50006F927F928F929F92AF92BF92CF92DF92B9
:101F6000EF92FF920F931F93CF93DF93CDB7DEB71E
:101F7000CA1BDB0B0FB6F894DEBF0FBECDBF0994B2
:101F80002A88398848885F846E847D848C849B8409
:101F9000AA84B984C884DF80EE80FD800C811B8117
:101FA000AA81B981CE0FD11D0FB6F894DEBF0FBE46
:0A1FB000CDBFED010895F894FFCFB6
:101FBA00FFFFFFFF00E100000000000000006E02CA
:101FCA0080005858585858585831303000C18081CC
:101FDA00000000000000007107EE07D4079207B066
:101FEA00078707000000006302DF012C020A021EB5
:101FFA0002AA02416E616C6F675F30004400FE0006
:00000001FF
